:100000000C9434000C9451000C9451000C94510049
:100010000C9451000C9451000C9451000C9451001C
:100020000C9451000C9451000C9451000C9451000C
:100030000C9451000C9451000C9451000C945100FC
:100040000C9451000C9451000C9451000C945100EC
:100050000C9451000C9451000C9451000C945100DC
:100060000C9451000C94510011241FBECFEFD8E026
:10007000DEBFCDBF11E0A0E0B1E0E2EDFDE002C0E7
:1000800005900D92AC31B107D9F721E0ACE1B1E0B8
:1000900001C01D92A133B207E1F70E9437020C9410
:1000A000E7060C9400000F931F93CF93DF9300D0CB
:1000B00000D000D00F92CDB7DEB78C010E947D0139
:1000C000811561F081E027960FB6F894DEBF0FBE70
:1000D000CDBFDF91CF911F910F91089580ED0E94C8
:1000E000A0018111EFCF0E94BA018111EBCF0E94D4
:1000F00093018111E7CF81ED0E94A0018111E2CF30
:1001000067E070E0CE0101960E94E1018111DACF33
:100110000E948A018111D6CF3981932F92959770D1
:100120002AE03F70929F300D1124F80130833A810C
:10013000932F929597703F70929F300D11243183C9
:100140003B81932F92959370929F902D11243F7035
:10015000390F32833C813770930F93833D81932F06
:10016000929593703F70929F300D112434833E819D
:1001700037FB992790F9958334FB992790F991954E
:100180009A703F70930F96839F81392F32953F70FD
:100190009F70329F900D1124978395CFFC0181E0D1
:1001A00090E09C0102C0220F331F6A95E2F7B9016B
:1001B0008081413019F4822B8083089560956823F3
:1001C000608308950C94CE00FC01808121E030E032
:1001D00001C0220F6A95EAF7822780830895AF92C3
:1001E000BF92CF92DF92EF92FF920F931F93CF9324
:1001F000DF9300D0CDB7DEB79A83898369817A8196
:1002000080E090E00E94DB025B016C0120E030E0C6
:100210004AE755E40E946A037B018C0120E030E04C
:1002200040E85FE30E94A70287FD33C020E03FEF74
:100230004FE757E4B701C8010E94650318160CF593
:1002400020E030E040E251E4B501C6010E946A03BB
:100250000E94AC02CB0120E931E0009769F40F90D5
:100260000F90DF91CF911F910F91FF90EF90DF9052
:10027000CF90BF90AF900895F9013197F1F70197B2
:10028000ECCFB701C8010E94AC02CB010197F1F796
:10029000E6CF81E090E0FACF9F938F9380E091E0EA
:1002A0009F938F931F928CE08F938CE191E09F93AB
:1002B0008F930E94FF038DB79EB708960FB6F894F0
:1002C0009EBF0FBE8DBF8CE191E00895811531F086
:1002D00087B18F7C87B988B1806388B984E08093C7
:1002E000BC0088E48093B80008951092BC00089583
:1002F0008091BC0087FFFCCF089584EA8093BC0006
:100300000E9478019091B900987F81E0983009F4BB
:1003100080E0089584E98093BC008091BC0084FD56
:10032000FCCF80E0089584EA8093BC000E947801AD
:100330009091B900987F81E0903109F480E00895B0
:10034000CF93C82F8093BB0084E88093BC000E94A9
:1003500078012091B900287F30E040E450E0C0FDF2
:1003600002C048E150E081E02417350709F480E03D
:10037000CF9108958093BB0084E88093BC000E94D5
:1003800078019091B900987F81E0983209F480E07B
:1003900008950F931F93CF93DF93EC018C01060F09
:1003A000171FC017D10731F480E0DF91CF911F9163
:1003B0000F91089589910E94BA01811591F381E00E
:1003C000F4CFCF92DF92EF92FF920F931F93CF93D0
:1003D000DF93EB017C0100E010E06B0181E0C81AC3
:1003E000D1080C171D0751F480E0DF91CF911F91C8
:1003F0000F91FF90EF90DF90CF90089584E8C016A2
:10040000D10609F084EC8093BC000E9478018091B1
:10041000BB00F70181937F010F5F1F4FE2CF9B016C
:10042000AC0160E472E48FE090E00E94850221500C
:1004300031093093C5002093C40088E18093C10046
:1004400086E08093C20008959091C00095FFFCCF94
:100450008093C6000895CF93DF93EC0189918111B9
:1004600003C0DF91CF9108950E942402F7CF60E886
:1004700075E280E090E00E940F0241E065E084E2D6
:1004800090E00E94CE0081E00E94660183E091E04E
:100490000E942B02C1E088E291E00E94530082E1B9
:1004A00091E00E942B0280912A0190E00E944C0171
:1004B0000E942B0289E191E00E942B028091290188
:1004C00090E00E944C010E942B0289E191E00E9481
:1004D0002B028091280190E00E944C010E942B0287
:1004E0008FE091E00E942B024091300165E085E2AF
:1004F00090E00E94E200809130018C2780933001CF
:1005000088EE93E00E94EF00C6CFA1E21A2EAA1B4C
:10051000BB1BFD010DC0AA1FBB1FEE1FFF1FA217B3
:10052000B307E407F50720F0A21BB30BE40BF50BB0
:10053000661F771F881F991F1A9469F76095709539
:10054000809590959B01AC01BD01CF0108950E945B
:10055000180308F481E008950E94440388F09F572F
:1005600098F0B92F9927B751B0F0E1F0660F771FD7
:10057000881F991F1AF0BA95C9F714C0B13091F0CD
:100580000E945E03B1E008950C945E03672F782FFC
:100590008827B85F39F0B93FCCF386957795679592
:1005A000B395D9F73EF490958095709561957F4FFE
:1005B0008F4F9F4F0895E89409C097FB3EF49095A4
:1005C0008095709561957F4F8F4F9F4F9923A9F02C
:1005D000F92F96E9BB279395F695879577956795BB
:1005E000B795F111F8CFFAF4BB0F11F460FF1BC0FF
:1005F0006F5F7F4F8F4F9F4F16C0882311F096E992
:1006000011C0772321F09EE8872F762F05C066233F
:1006100071F096E8862F70E060E02AF09A95660FF8
:10062000771F881FDAF7880F9695879597F90895B1
:10063000990F0008550FAA0BE0E8FEEF16161706F3
:10064000E807F907C0F012161306E407F50798F05B
:10065000621B730B840B950B39F40A2661F0232B74
:10066000242B252B21F408950A2609F4A140A695F0
:100670008FEF811D811D089557FD9058440F551F20
:1006800059F05F3F71F04795880F97FB991F61F014
:100690009F3F79F087950895121613061406551F8B
:1006A000F2CF4695F1DF08C0161617061806991FF7
:1006B000F1CF86957105610508940895E894BB27EC
:1006C00066277727CB0197F908950E94180308F44D
:1006D0008FEF08950E947D030C94EE030E94E003C7
:1006E00038F00E94E70320F0952311F00C94D70313
:1006F0000C94DD0311240C945F030E943C0370F3FF
:10070000959FC1F3950F50E0551F629FF001729FB6
:10071000BB27F00DB11D639FAA27F00DB11DAA1FC5
:10072000649F6627B00DA11D661F829F2227B00D12
:10073000A11D621F739FB00DA11D621F839FA00D9D
:10074000611D221F749F3327A00D611D231F849FED
:10075000600D211D822F762F6A2F11249F57504044
:100760009AF0F1F088234AF0EE0FFF1FBB1F661FBF
:10077000771F881F91505040A9F79E3F510580F088
:100780000C94D7030C945F035F3FE4F3983ED4F3DB
:10079000869577956795B795F795E7959F5FC1F72C
:1007A000FE2B880F911D9695879597F9089597F9D7
:1007B0009F6780E870E060E008959FEF80EC089507
:1007C00000240A9416161706180609060895002430
:1007D0000A9412161306140605060895092E0394AA
:1007E000000C11F4882352F0BB0F40F4BF2B11F41E
:1007F00060FF04C06F5F7F4F8F4F9F4F0895AEE043
:10080000B0E0E5E0F4E00C94BE060D891E8986E0B8
:100810008C831A8309838F89988D813020E8920711
:1008200010F080E090E801979E838D83AE01455ED5
:100830005F4F698D7A8DCE0101960E9431044D8102
:100840005E8157FD0AC02F813885421753070CF48B
:100850009A01020F131FF80110822E96E4E00C9407
:10086000DA06ABE0B0E0E7E3F4E00C94B3066C0129
:100870007B018A01FC0117821682838181FFC9C135
:100880009AE0592EF6012381F70123FD859123FF7C
:1008900081917F01811509F459C1853239F423FD15
:1008A000959123FF91917F01953229F4B60190E053
:1008B0000E942206E7CF912C612C712CF0E27F166A
:1008C00040F59B32D9F058F49032D1F09332F1F0E8
:1008D0009E3299F576FC3AC1689476F806C09D324E
:1008E00091F09033C1F4689470F8F70123FD95916D
:1008F00023FF91917F019111E1CF26C0689471F897
:10090000689472F8F2CF689473F8EFCF689474F833
:10091000ECCF77FC19C080ED890F8A30C8F676FEDF
:1009200005C0959C800D1124982EDFCF659C800D0D
:100930001124682E689475F8D8CF9C3619F4689401
:1009400077F8D3CF983689F2892F8F7D85548330FD
:1009500008F488C0933609F4A4C0933709F4A7C0FB
:10096000933509F4B3C0943619F0993609F0DDC017
:10097000F80177FED3C061917191819191918F01BE
:10098000272D2F76822E97FF09C090958095709520
:1009900061957F4F8F4F9F4F689487F82AE030E032
:1009A000AE014F5F5F4F5A010E9452068A19A82E6E
:1009B000BA2C782C86FE0CC0E89470F8A91440F488
:1009C00084FE05C082FC03C0F82DFE7E7F2EB92C6C
:1009D00074FEF8C0FE01EA0DF11D8081803309F03C
:1009E000EAC0272D297E722E73FC0EC070FEF9C05E
:1009F0009A2CB61418F4960C9B18B62C862D8B19CD
:100A00006B1408F480E0B80EB61408F0ECC06B1854
:100A100074FEEBC0B60180E390E00E94220672FEF5
:100A200009C088E590E071FC02C088E790E0B6015B
:100A30000E942206A91408F4E5C0AA94B12C4FEF35
:100A4000A41AB40ACE0101964C01A80EB91EF501F4
:100A500082915F01B60190E00E9422068A149B04F5
:100A6000B1F715C00C5F1F4F8FE3898388248394EF
:100A7000912CAE014F5F5F4F5A01E89477F873FCF9
:100A800003C08614910498F181149104B9F561149E
:100A900009F4F8CEB60180E290E00E9422066A9442
:100AA000F6CFF801808189830E5F1F4FDFCFF801F9
:100AB000A190B1908F01692D70E076FC02C06FEFBC
:100AC0007FEFC5010E9417064C01D7CFF801A19016
:100AD000B1908F01692D70E076FC02C06FEF7FEF5F
:100AE000C5010E940C064C01689477F8C8CFB60186
:100AF00080E290E00E9422066A94C3CFF50177FC61
:100B0000859177FE81915F01B60190E00E942206F7
:100B100061106A94F1E08F1A9108B6CF61917191DA
:100B2000072E000C880B990B2ACF872CE89484F8A9
:100B30002AE030E0953739F1572D597F852E9037CF
:100B4000A9F058F49835A9F09F36D9F0F6018681BE
:100B500097812B96EFE00C94CF069837B9F784FE77
:100B600002C0689482F820E130E00DC0689484F8F7
:100B7000F6CF74FE03C0852F8660882E20E132E018
:100B800002C028E030E0F80187FE10C06191719149
:100B9000819191918F01FE0131965F01AF010E9419
:100BA00052068A19A82EE89487F802CF61917191B4
:100BB00080E090E0EFCF72FC02C0B39415CFB39405
:100BC000B39412CF872D8678811509F40DCFF5CF18
:100BD000B60180E290E00E94220683948614C0F35E
:100BE0000DCF8B2CFBCF612C13CF872D86788115F1
:100BF00009F420CF80E271FC8BE277FC8DE2B60134
:100C000090E016CFB60180E390E00E9422069A940D
:100C100011CF8FEF9FEF9DCFFC0105906150704089
:100C20000110D8F7809590958E0F9F1F0895FC01B5
:100C30006150704001900110D8F7809590958E0F0B
:100C40009F1F08950F931F93CF93DF93182F092FA2
:100C5000EB018B8181FD09C01FEF0FEF812F902FDA
:100C6000DF91CF911F910F91089582FF14C02E81C3
:100C70003F818C819D81281739073CF4E881F981F7
:100C8000CF0101969983888310838E819F8101967D
:100C90009F838E83E3CFE885F985812F0995892B82
:100CA000A1F3DACFFA01AA27283051F1203181F1DE
:100CB000E8946F936E7F6E5F7F4F8F4F9F4FAF4F64
:100CC000B1E03ED0B4E03CD0670F781F891F9A1F77
:100CD000A11D680F791F8A1F911DA11D6A0F711D2B
:100CE000811D911DA11D20D009F468943F912AE037
:100CF000269F11243019305D3193DEF6CF0108951F
:100D0000462F4770405D4193B3E00FD0C9F7F6CF4F
:100D1000462F4F70405D4A3318F0495D31FD405217
:100D2000419302D0A9F7EACFB4E0A69597958795AD
:100D300077956795BA95C9F700976105710508958C
:100D40009B01AC010A2E0694579547953795279538
:100D5000BA95C9F7620F731F841F951FA01D0895D0
:100D60002F923F924F925F926F927F928F929F92BB
:100D7000AF92BF92CF92DF92EF92FF920F931F93A9
:100D8000CF93DF93CDB7DEB7CA1BDB0B0FB6F8945A
:100D9000DEBF0FBECDBF09942A88398848885F849A
:100DA0006E847D848C849B84AA84B984C884DF800B
:100DB000EE80FD800C811B81AA81B981CE0FD11DEF
:100DC0000FB6F894DEBF0FBECDBFED010895F894C5
:020DD000FFCF53
:100DD200256400496E697469616C697A6564210DE4
:0C0DE2000A0054696D653A20003A0000D8
:00000001FF
