:100000000C9434000C943E000C943E000C943E0082
:100010000C943E000C943E000C943E000C943E0068
:100020000C943E000C943E000C943E000C943E0058
:100030000C943E000C943E000C943E000C943E0048
:100040000C943E000C943E000C943E000C943E0038
:100050000C943E000C943E000C943E000C943E0028
:100060000C943E000C943E0011241FBECFEFD8E04C
:10007000DEBFCDBF0E9437010C94A3020C94000098
:100080000895FC0181E090E09C0102C0220F331F23
:100090006A95E2F7B9018081413019F4822B80839F
:1000A000089560956823608308950C944100FC01D5
:1000B000808121E030E001C0220F6A95EAF78227B3
:1000C00080830895AF92BF92CF92DF92EF92FF921A
:1000D0000F931F93CF93DF9300D0CDB7DEB79A83F2
:1000E000898369817A8180E090E00E947F015B01D1
:1000F0006C0120E030E04AE755E40E940E027B01EB
:100100008C0120E030E040E85FE30E944B0187FD76
:1001100033C020E03FEF4FE757E4B701C8010E942A
:10012000090218160CF520E030E040E251E4B50178
:10013000C6010E940E020E945001CB0120E931E06D
:10014000009769F40F900F90DF91CF911F910F915D
:10015000FF90EF90DF90CF90BF90AF900895F9019E
:100160003197F1F70197ECCFB701C8010E94500118
:10017000CB010197F1F7E6CF81E090E0FACF81154E
:1001800031F087B18F7C87B988B1806388B984E00A
:100190008093BC0088E48093B80008958091BC00EF
:1001A00087FFFCCF089584EA8093BC000E94CE00B4
:1001B0009091B900987F81E0983009F480E008952B
:1001C00084E98093BC008091BC0084FDFCCF80E07A
:1001D000089584EA8093BC000E94CE009091B900FB
:1001E000987F81E0903109F480E00895CF93C82F83
:1001F0008093BB0084E88093BC000E94CE002091D5
:10020000B900287F30E040E450E0C0FD02C048E182
:1002100050E081E02417350709F480E0CF9108957C
:100220008093BB0084E88093BC000E94CE00909134
:10023000B900987F81E0983209F480E008950F9327
:100240001F93CF93DF93EC018C01060F171FC0178C
:10025000D10731F480E0DF91CF911F910F91089584
:1002600089910E941001811591F381E0F4CF41E062
:1002700065E084E290E00E944100C0E0D1E04C2FB4
:1002800065E085E290E00E945500CD2788EE93E07E
:100290000E946200F4CF0E94BC0108F481E008953E
:1002A0000E94E80188F09F5798F0B92F9927B7511D
:1002B000B0F0E1F0660F771F881F991F1AF0BA950A
:1002C000C9F714C0B13091F00E940202B1E0089564
:1002D0000C940202672F782F8827B85F39F0B93F56
:1002E000CCF3869577956795B395D9F73EF49095BD
:1002F0008095709561957F4F8F4F9F4F0895E8943B
:1003000009C097FB3EF490958095709561957F4F5D
:100310008F4F9F4F9923A9F0F92F96E9BB2793950B
:10032000F695879577956795B795F111F8CFFAF41B
:10033000BB0F11F460FF1BC06F5F7F4F8F4F9F4F4C
:1003400016C0882311F096E911C0772321F09EE8AA
:10035000872F762F05C0662371F096E8862F70E010
:1003600060E02AF09A95660F771F881FDAF7880FEA
:100370009695879597F90895990F0008550FAA0B40
:10038000E0E8FEEF16161706E807F907C0F01216A8
:100390001306E407F50798F0621B730B840B950BAB
:1003A00039F40A2661F0232B242B252B21F4089500
:1003B0000A2609F4A140A6958FEF811D811D08959D
:1003C00057FD9058440F551F59F05F3F71F0479506
:1003D000880F97FB991F61F09F3F79F087950895EB
:1003E000121613061406551FF2CF4695F1DF08C00A
:1003F000161617061806991FF1CF86957105610527
:1004000008940895E894BB2766277727CB0197F9CE
:1004100008950E94BC0108F48FEF08950E94210204
:100420000C9492020E94840238F00E948B0220F009
:10043000952311F00C947B020C94810211240C94EE
:1004400003020E94E00170F3959FC1F3950F50E005
:10045000551F629FF001729FBB27F00DB11D639F76
:10046000AA27F00DB11DAA1F649F6627B00DA11D1C
:10047000661F829F2227B00DA11D621F739FB00DC2
:10048000A11D621F839FA00D611D221F749F332732
:10049000A00D611D231F849F600D211D822F762FCB
:1004A0006A2F11249F5750409AF0F1F088234AF0A8
:1004B000EE0FFF1FBB1F661F771F881F9150504014
:1004C000A9F79E3F510580F00C947B020C94030227
:1004D0005F3FE4F3983ED4F3869577956795B7959B
:1004E000F795E7959F5FC1F7FE2B880F911D9695B5
:1004F000879597F9089597F99F6780E870E060E025
:1005000008959FEF80EC089500240A9416161706AC
:1005100018060906089500240A94121613061406F4
:1005200005060895092E0394000C11F4882352F057
:10053000BB0F40F4BF2B11F460FF04C06F5F7F4F0F
:0A0540008F4F9F4F0895F894FFCFEE
:00000001FF
