:100000000C9434000C943E000C943E000C943E0082
:100010000C943E000C943E000C943E000C943E0068
:100020000C943E000C943E000C943E000C943E0058
:100030000C943E000C943E000C943E000C943E0048
:100040000C943E000C943E000C943E000C943E0038
:100050000C943E000C943E000C943E000C943E0028
:100060000C943E000C943E0011241FBECFEFD8E04C
:10007000DEBFCDBF0E946D000C948C000C9400007C
:10008000FC0181E090E09C0102C0220F331F6A95C1
:10009000E2F7B9018081413019F4822B8083089501
:1000A00060956823608308950C944000FC01808172
:1000B00021E030E001C0220F6A95EAF782278083B1
:1000C0000895CF93DF9300D0CDB7DEB79A838983AD
:1000D0000F900F90DF91CF91089500D0CDB7DEB78C
:1000E00041E065E084E290E00E94400010E001E021
:1000F000412F65E085E290E00E94540010271A82AB
:10010000198289819A8180369A4E90F789819A81E5
:0C01100001969A838983F5CFF894FFCF05
:00000001FF
